:100000000C9464000C94E4140C9411150C948C0062
:100010000C948C000C9490030C948C000C94E90FBD
:100020000C948C000C948C000C948C000C948C0020
:100030000C948C000C9410100C948C000C948C007C
:100040000C943E150C948C000C948E170C94C017D5
:100050000C948C000C948C000C948C000C948C00F0
:100060000C9487130C948C0000000008000201001F
:100070000003040700000000000000000102040863
:100080001020408001020408102001020408102002
:10009000040404040404040402020202020203032E
:1000A00003030303000000002300260029000000D2
:1000B0000000250028002B0000000000240027007D
:1000C0002A00D9032E13F01711241FBECFEFD8E05A
:1000D000DEBFCDBF11E0A0E0B1E0E0ECF9E302C08B
:1000E00005900D92A235B107D9F723E0A2E5B1E062
:1000F00001C01D92A73DB207E1F710E0C8ECD0E0C7
:1001000004C02297FE010E94901BC23CD107C9F790
:100110000E9434180C94DE1C0C940000CF92DF92E5
:10012000EF92FF920F931F93E82FF92F05C0015014
:1001300011092109310961F1908196239417B9F3CE
:1001400005C0015011092109310911F1908196234F
:100150009413F7CFC12CD12CE12CF12C0AC08FEFD6
:10016000C81AD80AE80AF80A0C151D052E053F051D
:1001700079F080818623841791F36C2D7D2D8E2D4F
:100180009F2D1F910F91FF90EF90DF90CF900895DA
:1001900060E070E080E090E01F910F91FF90EF90A1
:1001A000DF90CF900895CF93DF93EC0160E08881DA
:1001B0000E94031784E190E00E94DF1561E08881CE
:1001C0000E94031784E190E0DF91CF910C94DF153A
:1001D0000F931F93CF93DF93EC01062F18E007FFD7
:1001E00002C061E001C060E089810E940317CE0176
:1001F0000E94D300000F115091F7DF91CF911F9112
:100200000F910895EF92FF921F93CF93DF9300D049
:10021000CDB7DEB77C01162F27FF02C060EC01C00E
:1002200060EE26FF606147FF686046FF646017FF6D
:10023000626016FF6160C70129834A830E94E8005B
:100240002981622FC7010E94E8004A81642FC701FB
:100250000E94E800612FC7010F900F90DF91CF91AE
:100260001F91FF90EF900C94E8007F928F929F92E5
:10027000AF92BF92CF92DF92EF92FF920F931F93B4
:10028000CF93DF93EC01162F942E822E60E00E9414
:10029000E80060E0CE010E94E80060E0CE010E942C
:1002A000E80060E0CE010E94E80083E0189F700142
:1002B000112467018FEFC81AD80A570182E0A80EEF
:1002C000B11C712C8A81781600F571120FC0EB8178
:1002D000FC81EE0DFF1D9082EB81FC81EC0DFD1D7C
:1002E0008082EB81FC81EA0DFB1D0083EB81FC81A8
:1002F00083E0789EE00DF11D11242281418160810F
:10030000CE010E9402017394DDCF60E0CE010E9415
:10031000E80060E0CE010E94E80060E0CE010E94AB
:10032000E80060E0CE01DF91CF911F910F91FF9027
:10033000EF90DF90CF90BF90AF909F908F907F9085
:100340000C94E8000F931F93CF93DF93EC01862F5B
:10035000688349832A8361E00E94CA1661E089812B
:100360000E94CA168A8161E070E023E0829FC0018A
:1003700011240E94941B9C838B8310E08A811817A0
:1003800048F400E020E040E0612FCE010E943501FA
:100390001F5FF4CFDF91CF911F910F910895FC0162
:1003A00082810895CF93DF93EC01862F6E834F8374
:1003B000288791E09D8760E00E94CA1661E08E81E7
:1003C0000E94031719861A861B861C86DF91CF911F
:1003D0000895DF92EF92FF920F931F93CF93DF93D5
:1003E000EC0161E08E810E9403176AEF70E080E00B
:1003F00090E00E94B7150E94881509851A852B8503
:100400003C85601771078207930720F419861A86C6
:100410001B861C862D85211111C009851A852B8507
:100420003C85DC01CB01801B910BA20BB30B803D03
:100430009740A105B10510F481E071C01D860E94AE
:10044000881569877A878B879C871C821B821A8212
:100450001982188261E08E810E94CA1660E08E8146
:100460000E94031764E170E080E090E00E94B715FD
:10047000F89461E08E810E94031788E290E00E9468
:10048000DF1560E08E810E94CA16F12CD12C81E02C
:10049000E12C082F10E08E810E94391780179107F8
:1004A00041F4E39481E090E00E94DF158FEFE812C1
:1004B000F2CF8E810E9439179FEFE916C9F023E031
:1004C0002F1590F4F0FC10C09D2D9695969596955D
:1004D000FE01E90FF11D9081990F908328852E155B
:1004E00010F491609083D394F39495E5F912D0CFF2
:1004F000789427E22D1590F42C8130E04881898191
:1005000090E0840F911D4A81840F911D4B81840FCF
:10051000911D99272817390709F48ECF80E0DF91C4
:10052000CF911F910F91FF90EF90DF900895CF92A0
:10053000DF92EF92FF920F931F93CF93DF93EC0123
:10054000162F0E94E901882309F450C08F818B3057
:1005500031F008F44BC08551823078F047C06A8191
:1005600070E080E090E00E94341A112309F449C041
:1005700020E030E040E151E42AC00A81602F6F772B
:1005800070E080E090E00E94361A20E030E040E821
:1005900053E40E94C21A6B017C016B8170E080E021
:1005A00090E00E94361A9B01AC01C701B6010E947F
:1005B000681920E030E040E251E40E94CC1907FDC8
:1005C0009058112309F120E030E040E151E40E940D
:1005D000C21A20E030E040EA50E40E94CC1920E04A
:1005E00030E040E052E40E9468190EC060E171E022
:1005F00086E393E00E94811820E030E040EC5FE762
:1006000005C09B01AC0102C09B01AC01B901CA014C
:10061000DF91CF911F910F91FF90EF90DF90CF90DE
:100620000895CF92DF92EF92FF92CF93DF93EC0188
:100630000E94E901882379F18F818B3029F158F1EB
:100640008551823040F5688170E080E090E00E9442
:10065000341A20E030E040E853E40E94C21A6B01F3
:100660007C01698170E080E090E00E94361A9B0175
:10067000AC01C701B6010E94681920E030E040E2F9
:1006800051E40E94CC1911C0688170E080E090E0D4
:100690000E94341A0AC060E171E086E393E00E9490
:1006A000811860E070E080EC9FE7DF91CF91FF90D0
:1006B000EF90DF90CF900895CF93DF9382E00E9478
:1006C0003917EC0183E00E9439178C239D23019791
:1006D00019F481E080935401DF91CF91089584E073
:1006E000809368008BB381718BBB8CE080936D002D
:1006F000089548EE53E060E070E080E692E00E94EA
:100700009F102FEF3FEFA9016CE573E080E692E0C8
:100710000E94B5107894089580E692E00C94A6109B
:100720001F920F920FB60F9211241F932F933F9396
:100730004F935F936F937F938F939F93AF93BF93E9
:10074000CF93DF93EF93FF93109154011130E9F4AD
:1007500082E00E943917EC0183E00E9439178C1760
:100760009D071CF4109352010CC082E00E943917BF
:10077000EC0183E00E943917C817D90734F41092AE
:1007800052011093530110925401FF91EF91DF91A8
:10079000CF91BF91AF919F918F917F916F915F9119
:1007A0004F913F912F911F910F900FBE0F901F906F
:1007B000189582E591E00C946F03CF93DF93EC01E1
:1007C000862FE62FF0E0F983E88350E05B834A83CD
:1007D0002C831E821D8261E00E94CA1661E08A811C
:1007E000DF91CF910C94CA161F93CF93DF93EC0146
:1007F00060E08A810E9403178AE090E00E94DF1582
:1008000014E061E08A810E94031760E08A810E94FF
:1008100003171150B1F7DF91CF911F910895FF9207
:100820000F931F93CF93DF93EC018B0190E1F92E8F
:10083000612F661F6627661F8A810E9403178881C1
:100840000E94391761E0892B09F060E088810E94DD
:100850000317000F111FFA9459F7DF91CF911F91E1
:100860000F91FF900895EF92FF920F931F93CF93F4
:10087000DF93EC017B01CB0193709E838D8360E05D
:1008800070E0CE010E940F0400E010E08C8188230C
:1008900051F0C701002E02C0880F991F0A94E2F799
:1008A00091FF0DC009C0C701002E02C09695879523
:1008B0000A94E2F780FF03C06FEF70E002C060E0CF
:1008C00070E0CE010E940F040F5F1F4F0A30110528
:1008D000E9F660E070E0CE010E940F0460E070E095
:1008E000CE010E940F04CE01DF91CF911F910F9195
:1008F000FF90EF900C94F403FC0164836581768192
:100900000C9433046B3008F06AE02FEF3FEF02C025
:10091000220F331F6A95E2F720953095FC0136834C
:100920002583B9010C943304662321F06B3018F051
:100930006AE001C061E05FEF560FFC01258136815E
:1009400061E070E002C0660F771F5A95E2F744231A
:1009500019F0622B732B04C060957095622373238A
:10096000FC01768365830C943304662321F06B309D
:1009700018F06AE001C061E02FEF260F61E070E03F
:1009800002C0660F771F2A95E2F7FC0125813681A8
:1009900062277327768365830C943304FC01858179
:1009A00096810895FC0181E020813181232B09F497
:1009B00080E0089580916401909165010196909383
:1009C00065018093640108950E94881560937E01FB
:1009D00070937F01809380019093810182E00E9457
:1009E000391790936D0180936C01892BA9F060E019
:1009F00088E00E94031780917E0190917F01A09171
:100A00008001B091810180937A0190937B01A09342
:100A10007C01B0937D0114C080917E0190917F0193
:100A2000A0918001B091810180937601909377012C
:100A3000A0937801B093790161E088E00E940317E8
:100A400040917A0150917B0160917C0170917D0110
:100A50008091760190917701A0917801B091790110
:100A600084179507A607B70740F5481B590B6A0B73
:100A70007B0B4093720150937301609374017093E8
:100A800075018091860190918701A0918801B091B4
:100A90008901840F951FA61FB71F8093860190932D
:100AA0008701A0938801B093890110927A01109276
:100AB0007B0110927C0110927D01089564E070E04A
:100AC00086E692E00E94221364E47DE086E692E0EE
:100AD0000E9424136DE77DE086E692E00E942913D0
:100AE00041E050E064EE74E080E00C94B414AF9206
:100AF000BF92CF92DF92EF92FF920F931F93CF930B
:100B0000DF93CDB7DEB728970FB6F894DEBF0FBEE0
:100B1000CDBF8091C2019091C301049709F0BAC181
:100B20008091C0019091C101892B09F0B3C181E08E
:100B300090E09093C1018093C0018091C401909195
:100B4000C5018130910539F48091C6010E943917A1
:100B50008093BF019FC18230910539F46091C80133
:100B60008091C6010E94031795C183309105B1F4AD
:100B70008091C6010E942516909394018093930161
:100B80009C0197FF02C021503F4F3093AB0160E0C2
:100B900071E00E94391B8093AC017CC184309105C7
:100BA00049F46091C8017091C9018091C6010E9409
:100BB000421670C18530910539F46091C801809169
:100BC000C6010E94CA1666C18730910509F043C06C
:100BD0008091C6019091C70180935701909358016D
:100BE00061E00E94CA1660E0809157010E940317DD
:100BF00082E090E00E94DF1561E0809157010E9441
:100C0000031785E090E00E94DF1560E080915701B6
:100C10000E94031760E0809157010E94CA1620E4E9
:100C200032E44FE050E061E0809157010E9462178A
:100C30002AE330E040E050E00E946F1BCA01B90196
:100C400020E031E040E050E00E946F1B2093AB01B8
:100C50006093AC011FC18830910551F481E080930D
:100C6000AB0182E08093AC0188E08093AD0112C1BA
:100C70008832910509F05EC080918E0190918F01BC
:100C8000892B09F407C18091C8019091C90100978F
:100C900019F426E04BE00BC08130910519F426E0F1
:100CA00046E105C00297029740F426E045E16091D5
:100CB000C6018AE292E00E94D20160E08AE292E0FC
:100CC0000E9497026D837E838F8398878AE292E0E9
:100CD0000E94110369837A838B839C83109256014F
:100CE00010925501FE01359680E090E00196219129
:100CF000DC01AB56BE4F2C9384309105BCF384E0ED
:100D000090E090935601809355010196DC01AB561B
:100D1000BE4FE1E0F0E0EC0FFD1FE80FF91F359743
:100D200020812C938830910584F390935601809311
:100D300055015DC082339105D9F44091C6015091AF
:100D4000C70121E08091C8019091C901892B09F464
:100D500020E061E0640FFA01329737E03E9FC00166
:100D60003F9F900D112480509E4F0E94DD0392C042
:100D7000C39709F041C02091C6013091C7012250AC
:100D8000310947E0429FC001439F900D11248050DC
:100D90009E4F0E94D204811161C12EC08A309105FC
:100DA00009F0F5C580918E0190918F01019709F0AE
:100DB00071C080916E018093AA018091820190910F
:100DC0008301A0918401B09185018093AB01492FEB
:100DD0005A2F6B2F772740938201509383016093A2
:100DE0008401709385014093AC01A093AD011092F2
:100DF0008F0110928E014EC08091C4019091C50167
:100E0000C49709F406C18091C4019091C501C597AA
:100E100091F42091C6013091C7012250310947E079
:100E2000429FC001439F900D112480509E4F0E940D
:100E3000D20481112CC18091C4019091C501C69743
:100E400009F440C18091C4019091C501C79709F48C
:100E50005EC18091C4019091C501C89709F484C115
:100E60008091C4019091C5018634910509F0A3C118
:100E70006091C6017091C70141E0460F9B0122506D
:100E80003109C901880F991F820F931F82519E4F0C
:100E90000E94D0108091700190917101892BD9F13D
:100EA0000E94881500918A0110918B0120918C017C
:100EB00030918D01601B710B820B930B6133754771
:100EC0008105910540F181E090E090936F0180935E
:100ED0006E018091860190918701A0918801B09167
:100EE00089018093820190938301A0938401B09340
:100EF000850110928601109287011092880110924C
:100F000089010E94881560938A0170938B018093F8
:100F10008C0190938D018091660190916701892BDE
:100F200039F180915301813019F52091520180915E
:100F30006A0190916B01213049F401968931910544
:100F400054F010926B0110926A0109C0019797FF4B
:100F500002C088E190E090936B0180936A0181E088
:100F60008093680180916A01809369011092530116
:100F70008091600190916101892B09F474C50E94F0
:100F8000881500915C0110915D0120915E01309106
:100F90005F01601B710B820B930B613D77408105F4
:100FA000910508F460C520916401309165014EE11E
:100FB000429FC001439F900D112469E470E00E949C
:100FC000391BE62F472F609362017093630181E024
:100FD00080935901862F972F60E071E00E94391BA2
:100FE00080935A012E2F342F37FF02C021503F4FDC
:100FF00030935B0110926501109264010E94881584
:1010000060935C0170935D0180935E0190935F013A
:101010002AC52091C6013091C7012250310917E03D
:10102000129FC001139F900D112480509E4F0E946B
:10103000D204882309F4E7CE2091C6013091C7017C
:1010400022503109129FC001139F900D112460910D
:10105000C80180509E4F0E9482041CCF61E08091A5
:10106000C8019091C901892B09F460E02091C60163
:101070003091C7012250310947E0429FC001439F90
:10108000900D112480509E4F0E947C0403CF41E0BC
:101090008091CA019091CB01892B09F440E0209105
:1010A000C6013091C7012250310957E0529FC0015B
:1010B000539F900D11246091C80180509E4F0E9453
:1010C0009404E8CE2091C6013091C7012250310925
:1010D00017E0129FC001139F900D112480509E4F66
:1010E0000E94D204882309F4ADCE2091C60130912C
:1010F000C70122503109129FC001139F900D112486
:101100006091C80180509E4F0E94B504C3CE2091CB
:10111000C6013091C7012250310917E0129FC0016A
:10112000139F900D112480509E4F0E94D20488235B
:1011300009F48FCE80E090E09091CA016091C801DF
:101140007091C901682779272091C6013091C701A4
:1011500022503109129FC001139F900D112480501D
:101160009E4F0E94330496CE2091C6013091C70154
:101170002250310917E0129FC001139F900D1124D6
:1011800080509E4F0E94D204882309F469CE20919A
:10119000C6013091C70122503109129FC001139F2F
:1011A000900D112480509E4F0E94CE048093AB017D
:1011B0009093AC016FCE8734910519F52091C6014B
:1011C0003091C70122503109C901880F991F820F40
:1011D000931F82519E4F0E943812882391F02091D4
:1011E000C6013091C70122503109C901880F991FEA
:1011F000820F931F6091C80182519E4F0E94E71099
:1012000049CE8091C4019091C5018834910559F56A
:101210002091C6013091C70122503109C901880FC0
:10122000991F820F931F82519E4F0E94381288236C
:10123000D1F080E090E09091CA016091C801709176
:10124000C901682779272091C6013091C701225032
:101250003109C901880F991F820F931FE12C00E00B
:1012600024E040E05CC08091C4019091C5018934C4
:10127000910589F42091C6013091C70122503109AE
:10128000C901880F991F820F931F82519E4F0E94A0
:10129000381281112BC08091C4019091C5018A340C
:1012A000910509F041C02091C6013091C70122503B
:1012B0003109C901880F991F820F931F82519E4FD8
:1012C0000E943812882381F12091C6013091C70114
:1012D00022503109C901880F991F820F931F609115
:1012E000CA0182519E4F0E94311238C080E090E0C6
:1012F0009091CA016091C8017091C901682779274E
:101300002091C6013091C70122503109C901880FCF
:10131000991F820F931FE12C00E024E041E08251ED
:101320009E4F0E94BB11B6CD8091C4019091C50122
:101330008B34910519F52091C6013091C7012250D7
:101340003109C901880F991F820F931F82519E4F47
:101350000E943812882391F08091CA0189832091DC
:10136000C6013091C70122503109C901880F991F68
:10137000820F931F2091C80141E00FC18091C401E9
:101380009091C5018C34910509F075C02091C6017A
:101390003091C70122503109C901880F991F820F6E
:1013A000931F82519E4F0E943812882309F463C014
:1013B0008091C8019091C9010AE010E0B8010E9433
:1013C000391B2091C6013091C70122503109C90152
:1013D000880F991F820F931F82519E4F0E943112D6
:1013E00089838091C8019091C901B8010E94391B7D
:1013F0002091C6013091C70122503109A901440F43
:10140000551F420F531F682FCA0182519E4F0E94E1
:10141000311280688A838091CA019091CB01B80112
:101420000E94391B2091C6013091C7012250310919
:10143000C901880F991F820F931F82519E4F0E94EE
:1014400031128B838091CA019091CB01B8010E9427
:10145000391B2091C6013091C70122503109A901E1
:10146000440F551F420F531F682FCA0182519E4FD0
:101470000E94311267C08091C4019091C5018D34E2
:10148000910589F42091C6013091C701225031099C
:10149000C901880F991F820F931F82519E4F0E948E
:1014A000381281111EC08091C4019091C5018E3403
:1014B000910509F049C02091C6013091C701225021
:1014C0003109C901880F991F820F931F82519E4FC6
:1014D0000E9438128823C1F18FEF89838A838B831E
:1014E00031C01091C801A090CA01B090CB01AA0CE4
:1014F000BB1CAA0CBB1CC12CD12CCA14DB040CF0E5
:10150000C9CC812F0E942516BC012091C6013091C3
:10151000C70122503109C901880F991F820F931FFB
:10152000E12C00E024E040E082519E4F0E94BB117C
:101530006AEF70E080E090E00E94B7152FEFC21ACA
:10154000D20ADBCF8C831CC08091C4019091C5016D
:101550008F34910551F52091C6013091C701225079
:101560003109C901880F991F820F931F82519E4F25
:101570000E9438128823C9F019821A821B821C82A9
:101580002091C6013091C70122503109C901880F4D
:10159000991F820F931F20E044E0BE016F5F7F4FD1
:1015A00082519E4F0E946E1175CC8091C401909122
:1015B000C5018A35910569F48091C6018093900137
:1015C0008091C801809391018091CA01809392011A
:1015D00061CC8B359105B1F46091C6017091C70162
:1015E00041E0460F9B012250310955E0529FC00156
:1015F000539F900D11242091C80180539E4F0E944B
:10160000A20148CC8C35910509F044C06091C60117
:101610007091C70141E0460F9B012250310955E00E
:10162000529FC001539F900D11242091C8018053F7
:101630009E4F0E94A2011091CA0112FBDD24D0F836
:10164000D19411FBCC24C0F8C19411701195E12CF8
:10165000F12CE5E0BE2E8091C8019091C901E816F9
:10166000F9060CF017CC6091C6017091C701625069
:101670007109B69EC001B79E900D1124012F2C2D2B
:101680004D2D6E2D80539E4F0E9435013FEFE31A82
:10169000F30AE1CF8D35910509F074C02091C8019E
:1016A0003091C9018091C6019091C701232BB1F4FB
:1016B0009C012250310945E0429FC001439F900D9B
:1016C000112400919201209191014091900160912B
:1016D000CA0180539E4F0E943501DCCB9C012250F1
:1016E000310945E0429FC001439F900D1124805372
:1016F0009E4F0E94CF01E12CF12CC82ED12C15E079
:10170000EC14FD040CF0C6CB2091C8013091C90146
:101710002130310541F48091CA019091CB01E81646
:10172000F906B1F42BC02230310541F48091CA0191
:101730009091CB018E159F055CF420C023303105BC
:10174000E9F48091CA019091CB01E816F906B4F052
:101750002091C6013091C70122503109129FC0016A
:10176000139F900D112400919201209191014091BD
:1017700090016E2D80539E4F0E9435014FEFE41A69
:10178000F40ABECF8E35910509F052C08091CA018E
:101790009091CB011816190634F081E090E09093F7
:1017A000CB018093CA012091C6013091C70122501C
:1017B000310945E0429FC001439F900D11248053A1
:1017C0009E4F0E94CF01E090C801F090C901C82E41
:1017D000D12C15E0EC14FD040CF05CCB8091C80119
:1017E0009091C9019701281B390BC9016091CA0169
:1017F0007091CB010E94391B892BB1F42091C60155
:101800003091C70122503109129FC001139F900DE2
:1018100011240091920120919101409190016E2D2F
:1018200080539E4F0E9435013FEFE31AF30AD2CF57
:101830008F35910509F084C02091C6013091C70110
:101840002250310945E0429FC001439F900D112471
:1018500080539E4F0E94CF01182F8091CA01909112
:10186000CB01C12ED12CE12CF12C892B99F515E05F
:10187000EC14FD040CF00ECB2091C8013091C9018D
:101880008091C6019091C701E216F3067CF49C0199
:1018900022503109129FC001139F900D1124009115
:1018A000920120919101409190010BC09C01225026
:1018B0003109129FC001139F900D112400E020E018
:1018C00040E06E2D80539E4F0E9435014FEFE41A89
:1018D000F40ACECF75E0B72E96012E193F0909F410
:1018E000D9CA8091C8019091C901A601481B590B22
:1018F000CA014091C6015091C701612F6E19425033
:1019000051092817390764F0B49EC001B59E900DA7
:10191000112400919201209191014091900108C001
:10192000B49EC001B59E900D112400E020E040E07F
:1019300080539E4F0E9435015FEFE51AF50ACCCF28
:101940008E309105C1F441E050E064EE74E080E037
:101950000E94B41481E090E0909371018093700133
:101960000E94881560938A0170938B0180938C018B
:1019700090938D0153C08F30910509F00FCA80E01C
:101980000E94D414109271011092700147C08031EE
:10199000910559F482E591E00E94790381E090E09D
:1019A000909367018093660139C08131910549F4B4
:1019B00082E591E00E948C0310926701109266010B
:1019C00069CA8231910501F560E082E00E94CA1681
:1019D00043E050E06AED74E080E00E94B41410929D
:1019E0006501109264010E94881560935C017093F8
:1019F0005D0180935E0190935F0181E090E09093A0
:101A00006101809360010AC08D30910561F41092EC
:101A100061011092600180E00E94D4141092C5010F
:101A20001092C40137CA479709F034CA0091C60121
:101A30001091C701B8018EEC91E00E94340E7C0138
:101A4000B8018EEC91E00E943F0E1092AA018093A3
:101A5000AB01C70160E071E00E94391B8093AC01CB
:101A60001092AD0117CA28960FB6F894DEBF0FBECC
:101A7000CDBFDF91CF911F910F91FF90EF90DF903D
:101A8000CF90BF90AF9008950F931F93CF93DF93A4
:101A900001E010E086E692E00E943F12892B41F1BE
:101AA00086E692E00E943F12049761F41092C10111
:101AB0001092C0011092C3011092C20110938F01C5
:101AC00000938E01C091C201D091C301CE01019655
:101AD0009093C3018093C20186E692E00E94471270
:101AE000FE01EE0FFF1FEC53FE4F91838083D2CF98
:101AF000DF91CF911F910F9108958091C401909132
:101B0000C501019731F46091BF0186E692E00E9421
:101B1000C6128091C4019091C5019C012B7F233096
:101B2000310511F0C89741F443E050E06AEA71E0F2
:101B300086E692E00E9499128091C4019091C501BD
:101B40008830910529F08431910511F0479741F4CF
:101B500044E050E06AEA71E086E692E00E94991261
:101B60008091C4019091C5014E9741F449E050E045
:101B70006AEA71E086E692E00E9499128091C401BF
:101B80009091C501889741F449E050E065E971E022
:101B900086E692E00E9499128091C4019091C5015D
:101BA000459751F445E150E06AEA71E086E692E03B
:101BB0000E9499121092AA018091C4019091C501CE
:101BC0000A9781F444E050E06AEA71E086E692E028
:101BD0000E94991210926F0110926E011092C5012D
:101BE0001092C4018091C4019091C5010B9771F4CA
:101BF00042E050E068E671E086E692E00E949912C9
:101C0000109268011092C5011092C4018091C40124
:101C10009091C5010C9771F443E050E069E571E0E3
:101C200086E692E00E949912109259011092C50125
:101C30001092C401089570933A0260933902809122
:101C40003802811110C0F89482E08093B00096E0D1
:101C50009093B1009CE79093B300809370007894C8
:101C600081E080933802089520913802211102C04A
:101C70000E941B0E80915E0290915F0208958091F8
:101C80005A0210925A020895CF93DF93F8948091EC
:101C9000390290913A020E94251690935D0280933A
:101CA0005C028091420290914302A0914402B09163
:101CB00045020296A11DB11D8093420290934302FA
:101CC000A0934402B09345024091420250914302D6
:101CD000609144027091450280913E0290913F02D2
:101CE000A0914002B0914102EA01C81BD90B20919A
:101CF0005C0230915D0280910701909108012817E4
:101D000039071CF580910D0190910E0165E070E09E
:101D10000E94391BCB01880F991F860F971F8C17C4
:101D20009D079CF420915C0230915D028091090135
:101D300090910A012817390744F480915C02909130
:101D40005D0290930A018093090120915C02309119
:101D50005D0280910701909108018217930764F456
:101D600020915C0230915D0280910B0190910C01F9
:101D7000821793070CF488C0CB3FD1050CF443C005
:101D800020915C0230915D028091070190910801E1
:101D900082179307C4F580915B02811134C0809152
:101DA0000D0190910E0165E070E00E94391BCB019E
:101DB000880F991F860F971F8C179D070CF46DC015
:101DC00022C080910D0190910E0190935902809351
:101DD00058028091580290915902820F931F6AE035
:101DE00070E00E94251B9B0140E050E060E67AEE27
:101DF00080E090E00E946F1B30935F0220935E02B0
:101E000081E080935A0220915C0230915D028091C2
:101E10000701909108012817390724F480915B028B
:101E20008111A4C0C53CD9405CF182E192E090935D
:101E300008018093070180E092E090930C01809369
:101E40000B0190930A0180930901809142029091C5
:101E50004302A0914402B091450280933E029093C8
:101E60003F02A0934002B093410281E080930601BB
:101E700010923B0210925F0210925E0210925A0280
:101E80007894DF91CF91089580915C0290915D02EA
:101E900090930C0180930B016FCF81E080935B02E4
:101EA0004091420250914302609144027091450278
:101EB00080913E0290913F02A0914002B091410278
:101EC000481B590B50930E0140930D018091420223
:101ED00090914302A0914402B091450280933E024A
:101EE00090933F02A0934002B093410280913B0245
:101EF000882399F010923B0280E090E020910D0140
:101F000030910E01FC01EE0FFF1FEA5BFD4F3183A4
:101F1000208301968A30910589F7809106018823F4
:101F200041F01092060181E080933B0280935A02B7
:101F3000A7CFE0E0F0E020E030E0CF010196DC0147
:101F4000AA0FBB1FAA5BBD4F4D915C91EE0FFF1F07
:101F5000EA5BFD4F5183408340815181240F351F3F
:101F60008930910509F42DCFFC01E7CF10925B0277
:101F700080910B0190910C012091090130910A018F
:101F8000821B930B90933D0280933C0280913C0214
:101F900090913D022091090130910A0197FD01962F
:101FA00095958795820F931F909308018093070161
:101FB000809107019091080190930C0180930B018F
:101FC000809107019091080190930A018093090183
:101FD00029CF1F920F920FB60F9211242F933F9388
:101FE0004F935F936F937F938F939F93AF93BF9321
:101FF000EF93FF938091380281110E94440EFF916C
:10200000EF91BF91AF919F918F917F916F915F9170
:102010004F913F912F910F900FBE0F901F901895E9
:102020001F920F920FB60F9211242F933F934F934D
:102030005F936F937F938F939F93AF93BF93EF9330
:10204000FF93E0916402F09165020995FF91EF9191
:10205000BF91AF919F918F917F916F915F914F91C0
:102060003F912F910F900FBE0F901F901895FC017C
:10207000A3E0440F551F661F771FAA95D1F741159E
:10208000510581E06807710514F481E00EC033E06A
:1020900075956795579547953A95D1F7411551052F
:1020A00081E0680771051CF482E0828331C023E07F
:1020B00075956795579547952A95D1F7411551051F
:1020C00081E06807710514F483E0EFCF92E0759525
:1020D0006795579547959A95D1F74115510581E038
:1020E0006807710514F484E0E0CF82E07595679588
:1020F000579547958A95D1F785E08283411551051B
:1021000081E06807710524F04FEF5FEF60E070E059
:102110008FB78383F8945183408350938700409313
:10212000860083818FBF80918100887F80938100AA
:10213000809181009281892B809381000895109273
:10214000800020E1209381000C943710EFE6F0E04E
:1021500080818E7F80830895E1E8F0E02081DC01BA
:1021600012968C91282B208308950F931F93CF9361
:10217000DF93EC018B01BA01A901141615061606AE
:10218000170614F40E9437101D830C8381E080939E
:102190006F00CE01DF91CF911F910F910C94AC1085
:1021A000CF93DF93EC01862F6883498360E00E9420
:1021B000CA1660E089810E94CA1660E088810E9488
:1021C000031760E08981DF91CF910C940317683089
:1021D00010F4685F01C06FE0FC016283089561E064
:1021E000FC0181810E94CA1682E390E00C94DF1505
:1021F000CF93DF93EC0161E089810E94CA1682E3EC
:1022000090E00E94DF1560E088810E94CA1682E398
:1022100090E00E94DF1560E089810E94CA1682E387
:1022200090E0DF91CF910C94DF150F931F93CF9324
:10223000DF93EC01062F18E061E088810E94CA1646
:1022400082E390E00E94DF1500FF02C060E001C061
:1022500061E089810E94CA1682E390E00E94DF1546
:1022600060E088810E94CA1682E390E00E94DF1538
:102270000695115009F761E088810E94CA1660E056
:1022800089810E94CA1682E390E00E94DF1560E017
:1022900088810E94CA1682E390E00E94DF1589813E
:1022A0000E943917182F811104C061E089810E94B2
:1022B000CA1682E390E00E94DF1561E088810E94E7
:1022C000CA1682E390E00E94DF1581E0111101C07F
:1022D00080E0DF91CF911F910F910895AF92BF924F
:1022E000DF92EF92FF920F931F93CF93DF9300D073
:1022F000CDB7DEB75C01F62EE42E29837A830E94E7
:10230000EF1060E4C5010E941511C5010E94F8108C
:10231000C5010E94EF102981622F63706054C501CE
:102320000E941511DF2C0F2D7A81172F802F8D1908
:102330008E1538F4F80161918F01C5010E941511C5
:10234000F5CFC5010E94F810C5010E94EF10F501FC
:1023500062816058C5010E941511C5010F900F9050
:10236000DF91CF911F910F91FF90EF90DF90BF9081
:10237000AF900C94F8104F925F926F927F928F9271
:102380009F92AF92BF92CF92DF92EF920F931F93E3
:10239000CF93DF9300D000D0CDB7DEB73C015B0117
:1023A000322F202F82E2882E81E0982ECE010196D6
:1023B0006C01FC0101E01FE3D4015E904E904D01E1
:1023C000C501B2010E94391B6115710561F441110B
:1023D00006C0002321F08E2F8C19833011F4108356
:1023E00013C0108211C0A62FAF70B0E0AE5DBE4F1B
:1023F0008C918083649DC001659D900D749D900DAE
:102400001124A81AB90A00E0EE2039F08E2F8C1999
:10241000813019F48081806880833196BAE18B160F
:10242000B1E09B0649F664E070E0631B71096C0D36
:102430007D1D432FC3010E946E110F900F900F90CE
:102440000F90DF91CF911F910F91EF90DF90CF9080
:10245000BF90AF909F908F907F906F905F904F90C4
:1024600008956F70E62FF0E0EE5DFE4F80810895D5
:10247000FC0181E09081911101C080E0089580917C
:10248000990290E020919A02821B9109089520916F
:102490009A0280919902281750F4E22FF0E0E55655
:1024A000FD4F808190E02F5F20939A0208958FEF77
:1024B0009FEF0895E0919A0280919902E81730F415
:1024C000F0E0E556FD4F808190E008958FEF9FEF9B
:1024D00008950895E0917202F09173023097E1F04F
:1024E00030919A02209199023217B0F040E0242FE7
:1024F00030E02617370754F4DC01A20FB31F5C91BC
:10250000D901A556BD4F5C934F5FF1CF10929A024F
:1025100060939902CB0109940895E0917402F091BF
:102520007502309729F01092780210927702099480
:102530000895CF92DF92EF92FF920F931F93CF9364
:10254000DF937C01CB018A0120917602222389F05E
:10255000EB016B01C40ED51ECC15DD0569F0699148
:10256000D701ED91FC910190F081E02DC701099513
:10257000F3CF642F0E945413C801DF91CF911F91B4
:102580000F91FF90EF90DF90CF900895CF93DF935E
:102590001F92CDB7DEB76983209176022223D1F056
:1025A00020917702203240F021E030E0FC013383BB
:1025B000228380E090E015C080917802E82FF0E05F
:1025C000E758FD4F998190838F5F809378028093C5
:1025D000770205C061E0CE0101960E94541381E0AC
:1025E00090E00F90DF91CF910895FC011382128249
:1025F00048EE53E060E070E0448355836683778360
:1026000086E391E091838083089510929A0210925C
:10261000990210927802109277020C943213CF93A1
:10262000DF93EC01862F0E9450138DE892E10E9407
:1026300072138AE692E10E946D13CE01DF91CF9171
:102640000C9405130C940F13709373026093720231
:1026500008957093750260937402089586E692E07F
:102660000C94F5121092280381E0809326031092B7
:10267000250361E082E10E94031761E083E10E948B
:102680000317E9EBF0E080818E7F808380818D7F6E
:10269000808388E48093B80085E48093BC0008952B
:1026A000880F8093BA000895613298F4209128032E
:1026B000243089F46093DD02FC018FED92E0DC01AF
:1026C0002A2F281B261718F421912D93F9CF80E08B
:1026D000089581E0089582E0089590932203809305
:1026E000210308959093240380932303089585ED97
:1026F0008093BC008091BC0084FDFCCF1092280325
:10270000089585EC8093BC001092280308951F92D1
:102710000F920FB60F9211242F933F934F935F9315
:102720006F937F938F939F93AF93BF93EF93FF9399
:102730008091B900887F803609F49CC068F58832A2
:1027400009F45BC090F4803109F454C038F4882354
:1027500009F4F5C0883009F44DC0F5C0883109F49A
:102760004CC0803209F45DC0EEC0803409F468C00A
:1027700048F4803309F455C0883309F0E4C08093ED
:10278000BB02A8C0803509F44FC0883509F45DC08C
:10279000883409F0D8C0D5C0883909F4C6C0A8F477
:1027A000883709F467C038F4883609F463C0803785
:1027B00009F460C0C8C0883809F4B7C0803909F48A
:1027C0005FC0803809F0BFC05BC0803B09F485C0A2
:1027D00038F4803A09F466C0883A09F47EC0B3C080
:1027E000803C09F4A6C0883C09F4A3C0883B09F4E6
:1027F00089C0A9C08091270310C0909100038091E7
:10280000FF02981770F5E091000381E08E0F80932E
:102810000003F0E0EF5FFC4F80818093BB0085EC0C
:1028200085C08093BB028DC0E091000381E08E0FD4
:10283000809300038091BB00F0E0EF5FFC4F80834A
:10284000909100038091FF026DC0E091000381E050
:102850008E0F809300038091BB00F0E0EF5FFC4F90
:1028600080838091260381116CC081E080932503D1
:1028700084EA60C083E0809328031092BC02CFCF2B
:102880008091BC02803208F050C0E091BC0281E02F
:102890008E0F8093BC028091BB00F0E0E354FD4FAB
:1028A0008083BDCF8091BC02803230F4E091BC02C5
:1028B000F0E0E354FD4F10820E9477136091BC0258
:1028C00070E0E0912103F09122038DEB92E00995F5
:1028D0001092BC020E94811336C084E080932803CA
:1028E0001092DE021092DD02E0912303F0912403A6
:1028F00009958091DD02811105C081E08093DD02A0
:102900001092DF02E091DE0281E08E0F8093DE0202
:10291000F0E0E152FD4F80818093BB009091DE0298
:102920008091DD02981708F47ACF85E88093BC0087
:102930000AC085EC8093BC001092280304C010925A
:10294000BB020E947713FF91EF91BF91AF919F91CE
:102950008F917F916F915F914F913F912F910F9048
:102960000FBE0F901F9018958230E8F4E82FF0E02A
:10297000EE0FFF1FE75DFC4F71836083813041F0F4
:10298000809169008C7F842B80936900E89A089578
:1029900080916900440F551F440F551F837F842B7E
:1029A00080936900E99A0895823068F4813011F0CB
:1029B000E89801C0E998E82FF0E0EE0FFF1FE75D0F
:1029C000FC4F1182108208951F920F920FB60F9242
:1029D00011242F933F934F935F936F937F938F9324
:1029E0009F93AF93BF93EF93FF93809129039091AF
:1029F0002A03892B29F0E0912903F0912A030995F4
:102A0000FF91EF91BF91AF919F918F917F916F91C6
:102A10005F914F913F912F910F900FBE0F901F909C
:102A200018951F920F920FB60F9211242F933F9378
:102A30004F935F936F937F938F939F93AF93BF93C6
:102A4000EF93FF9380912B0390912C03892B29F016
:102A5000E0912B03F0912C030995FF91EF91BF9129
:102A6000AF919F918F917F916F915F914F913F9126
:102A70002F910F900FBE0F901F9018951F920F92DD
:102A80000FB60F9211242F933F938F939F93AF9381
:102A9000BF9380912E0390912F03A0913003B091AA
:102AA000310330912D0323E0230F2D3720F40196BD
:102AB000A11DB11D05C026E8230F0296A11DB11D61
:102AC00020932D0380932E0390932F03A093300324
:102AD000B09331038091320390913303A09134037A
:102AE000B09135030196A11DB11D809332039093DF
:102AF0003303A0933403B0933503BF91AF919F91FB
:102B00008F913F912F910F900FBE0F901F901895AE
:102B10002FB7F89460912E0370912F0380913003AA
:102B2000909131032FBF08953FB7F89480913203FD
:102B300090913303A0913403B091350326B5A89B3F
:102B400005C02F3F19F00196A11DB11D3FBF66279B
:102B5000782F892F9A2F620F711D811D911D42E0E0
:102B6000660F771F881F991F4A95D1F70895CF9256
:102B7000DF92EF92FF92CF93DF936B017C010E9473
:102B80009415EB01C114D104E104F10489F00E9411
:102B900083180E9494156C1B7D0B683E734090F364
:102BA00081E0C81AD108E108F108C851DC4FEACF2A
:102BB000DF91CF91FF90EF90DF90CF90089582301A
:102BC000910538F0880F991F880F991F0597019775
:102BD000F1F70895789484B5826084BD84B58160EE
:102BE00084BD85B5826085BD85B5816085BDEEE615
:102BF000F0E0808181608083E1E8F0E010828081F4
:102C000082608083808181608083E0E8F0E0808161
:102C100081608083E1EBF0E0808184608083E0EB81
:102C2000F0E0808181608083EAE7F0E08081846069
:102C300080838081826080838081816080838081C5
:102C4000806880831092C10008958E3008F08E5005
:102C5000877020910F0190E4299F90011124822B0D
:102C600080937C0080917A00806480937A008091C8
:102C70007A0086FDFCCF809178002091790090E069
:102C8000922B08951F93CF93DF93182FEB0161E0F0
:102C90000E94CA16209711F460E004C0CF3FD1050E
:102CA00039F461E0812FDF91CF911F910C940317CC
:102CB000E12FF0E0E859FF4FE491E330F9F048F4F8
:102CC000E130B9F0E230A1F584B5806284BDC8BDC1
:102CD00034C0E730E9F0E83019F1E43049F580918B
:102CE0008000806280938000D0938B00C0938A0024
:102CF00024C084B5806884BDC7BD1FC0809180009A
:102D0000806880938000D0938900C093880015C0AC
:102D10008091B00080688093B000C093B3000DC074
:102D20008091B00080628093B000C093B40005C071
:102D3000C038D1050CF0B5CFAFCFDF91CF911F9147
:102D40000895833081F028F4813099F08230A1F029
:102D500008958730A9F08830B9F08430D1F480919B
:102D600080008F7D03C0809180008F7780938000EA
:102D7000089584B58F7702C084B58F7D84BD089592
:102D80008091B0008F7703C08091B0008F7D8093D9
:102D9000B0000895CF93DF9390E0FC01E458FF4F1B
:102DA0002491FC01E057FF4F8491882349F190E082
:102DB000880F991FFC01E854FF4FA591B4918255EB
:102DC0009F4FFC01C591D4919FB7611108C0F89441
:102DD0008C91209582238C93888182230AC0623053
:102DE00051F4F8948C91322F309583238C93888101
:102DF000822B888304C0F8948C91822B8C939FBF84
:102E0000DF91CF9108950F931F93CF93DF931F927C
:102E1000CDB7DEB7282F30E0F901E859FF4F849194
:102E2000F901E458FF4F1491F901E057FF4F049165
:102E30000023C9F0882321F069830E94A1166981CB
:102E4000E02FF0E0EE0FFF1FE255FF4FA591B49188
:102E50009FB7F8948C91611103C01095812301C034
:102E6000812B8C939FBF0F90DF91CF911F910F917A
:102E70000895CF93DF93282F30E0F901E859FF4FF1
:102E80008491F901E458FF4FD491F901E057FF4FC5
:102E9000C491CC2391F081110E94A116EC2FF0E097
:102EA000EE0FFF1FEC55FF4FA591B4912C912D23F0
:102EB00081E090E021F480E002C080E090E0DF91CA
:102EC000CF9108950F931F93762F90E0FC01E45863
:102ED000FF4F6491FC01E057FF4FE4917111762F91
:102EE000F0E0EE0FFF1FEC55FF4F859194918901A3
:102EF0009A013F70472F0E948E0061157105810570
:102F0000910531F06F5F7F4F8F4F9F4F9F7003C0D0
:102F100060E070E0CB011F910F9108951F920F9216
:102F20000FB60F9211242F938F939F93EF93FF93DC
:102F3000E0914603F09147038081E0914C03F091CA
:102F40004D0382FD12C0908180914F038F5F8F737C
:102F500020915003821751F0E0914F03F0E0EA5CBA
:102F6000FC4F958F80934F0301C08081FF91EF91BB
:102F70009F918F912F910F900FBE0F901F901895DA
:102F80001F920F920FB60F9211242F933F934F93DE
:102F90005F936F937F938F939F93AF93BF93EF93C1
:102FA000FF9386E393E00E94BF18FF91EF91BF91DA
:102FB000AF919F918F917F916F915F914F913F91D1
:102FC0002F910F900FBE0F901F90189586E393E0FE
:102FD0000E94841821E0892B09F420E0822F0895B3
:102FE000109239031092380388EE93E0A0E0B0E02D
:102FF00080933A0390933B03A0933C03B0933D032B
:1030000086E491E0909337038093360385EC90E05B
:10301000909343038093420384EC90E090934503A4
:103020008093440380EC90E09093470380934603A1
:1030300081EC90E0909349038093480382EC90E008
:1030400090934B0380934A0386EC90E090934D035A
:1030500080934C0310924F0310925003109251032F
:1030600010925203089508950E94EA150E943318A1
:103070000E945E05C1EBD8E10E9477052097E1F33D
:103080000E94B118F9CFCF92DF92EF92FF920F9387
:103090001F93CF93DF936C017A01EB01E60EF71ECD
:1030A00000E010E0CE15DF0561F06991D601ED91E9
:1030B000FC910190F081E02DC6010995080F191FC0
:1030C000F1CFC801DF91CF911F910F91FF90EF9049
:1030D000DF90CF9008956115710581F0DB010D90AF
:1030E0000020E9F7AD0141505109461B570BDC01A7
:1030F000ED91FC910280F381E02D099480E090E055
:1031000008950C946B180895FC01818D228D90E038
:10311000805C9F4F821B91098F7399270895FC0152
:10312000918D828D981731F0828DE80FF11D858D7C
:1031300090E008958FEF9FEF0895FC01918D828DAF
:10314000981761F0828DDF01A80FB11D5D968C91FB
:10315000928D9F5F9F73928F90E008958FEF9FEF06
:10316000089586EE97E1892B49F080E090E0892B65
:1031700029F00E94E61781110C9400000895FC01CB
:10318000848DDF01A80FB11DA35ABF4F2C91848DF0
:1031900090E001968F739927848FA689B7892C9325
:1031A000A089B1898C9180648C93938D848D9813C0
:1031B00006C00288F389E02D80818F7D8083089589
:1031C000CF93DF93EC01888D8823C9F0EA89FB89CE
:1031D000808185FD05C0A889B9898C9186FD0FC0C5
:1031E0000FB607FCF5CF808185FFF2CFA889B9899A
:1031F0008C9185FFEDCFCE010E94BF18E7CFDF9104
:10320000CF910895CF92DF92FF920F931F93CF93A8
:10321000DF931F92CDB7DEB76C0181E0D6015896DF
:103220008C9358975B969C915B975C968C915C977E
:10323000981307C05096ED91FC915197808185FDC0
:103240002EC0F601038D10E00F5F1F4F0F73112783
:10325000F02EF601848DF81211C00FB607FCF9CFDD
:10326000D6015096ED91FC915197808185FFF1CF69
:10327000C60169830E94BF186981EBCF838DE80F77
:10328000F11DE35AFF4F6083D6015B960C935B9769
:103290005296ED91FC915397808180620CC0D601CB
:1032A0005696ED91FC91579760835096ED91FC9165
:1032B000519780818064808381E090E00F90DF915E
:1032C000CF911F910F91FF90DF90CF9008955058AC
:1032D000BB27AA270ED01CC10DD130F012D120F08F
:1032E00031F49F3F11F41EF402C10EF4E095E7FBA8
:1032F000F8C0E92F1ED180F3BA176207730784075D
:10330000950718F071F49EF536C10EF4E0950B2E7A
:10331000BA2FA02D0B01B90190010C01CA01A00127
:103320001124FF27591B99F0593F50F4503E68F182
:103330001A16F040A22F232F342F4427585FF3CFC3
:10334000469537952795A795F0405395C9F77EF494
:103350001F16BA0B620B730B840BBAF09150A1F0DD
:10336000FF0FBB1F661F771F881FC2F70EC0BA0F63
:10337000621F731F841F48F4879577956795B795EB
:10338000F7959E3F08F0B3CF9395880F08F09927E3
:10339000EE0F9795879508950CD0BAC0B2D040F043
:1033A000A9D030F021F45F3F19F09BC05111E4C067
:1033B0009EC0BFD098F39923C9F35523B1F3951B51
:1033C000550BBB27AA2762177307840738F09F5F46
:1033D0005F4F220F331F441FAA1FA9F333D00E2EB5
:1033E0003AF0E0E830D091505040E695001CCAF722
:1033F00029D0FE2F27D0660F771F881FBB1F2617E7
:1034000037074807AB07B0E809F0BB0B802DBF01B9
:10341000FF2793585F4F2AF09E3F510568F061C027
:10342000ABC05F3FECF3983EDCF3869577956795EC
:10343000B795F7959F5FC9F7880F911D969587956A
:1034400097F90895E1E0660F771F881FBB1F621789
:1034500073078407BA0720F0621B730B840BBA0B47
:10346000EE1F88F7E0950895E89409C097FB3EF4B5
:1034700090958095709561957F4F8F4F9F4F9923C1
:10348000A9F0F92F96E9BB279395F695879577953F
:103490006795B795F111F8CFFAF4BB0F11F460FFFF
:1034A0001BC06F5F7F4F8F4F9F4F16C0882311F057
:1034B00096E911C0772321F09EE8872F762F05C06B
:1034C000662371F096E8862F70E060E02AF09A9506
:1034D000660F771F881FDAF7880F9695879597F9FB
:1034E000089597F99F6780E870E060E008959FEF86
:1034F00080EC089500240A9416161706180609068B
:10350000089500240A941216130614060506089559
:10351000092E0394000C11F4882352F0BB0F40F4E1
:10352000BF2B11F460FF04C06F5F7F4F8F4F9F4F21
:10353000089557FD9058440F551F59F05F3F71F0A3
:103540004795880F97FB991F61F09F3F79F087950A
:103550000895121613061406551FF2CF4695F1DF93
:1035600008C0161617061806991FF1CF8695710523
:10357000610508940895E894BB2766277727CB0157
:1035800097F908950BD0C4CFB5DF28F0BADF18F053
:10359000952309F0A6CFABCF1124EECFCADFA0F35D
:1035A000959FD1F3950F50E0551F629FF001729FD8
:1035B000BB27F00DB11D639FAA27F00DB11DAA1FF7
:1035C000649F6627B00DA11D661F829F2227B00D44
:1035D000A11D621F739FB00DA11D621F839FA00DCF
:1035E000611D221F749F3327A00D611D231F849F1F
:1035F000600D211D822F762F6A2F11249F57504076
:103600008AF0E1F088234AF0EE0FFF1FBB1F661F10
:10361000771F881F91505040A9F79E3F510570F0C9
:1036200060CFAACF5F3FECF3983EDCF386957795A9
:103630006795B795F795E7959F5FC1F7FE2B880FC4
:10364000911D9695879597F90895AA1BBB1B51E18B
:1036500007C0AA1FBB1FA617B70710F0A61BB70B02
:10366000881F991F5A95A9F780959095BC01CD01A7
:10367000089597FB072E16F4009407D077FD09D024
:103680000E94251B07FC05D03EF4909581959F4F25
:103690000895709561957F4F0895A1E21A2EAA1B97
:1036A000BB1BFD010DC0AA1FBB1FEE1FFF1FA217F2
:1036B000B307E407F50720F0A21BB30BE40BF50BEF
:1036C000661F771F881F991F1A9469F76095709578
:1036D000809590959B01AC01BD01CF010895052E09
:1036E00097FB1EF400940E94861B57FD07D00E9492
:1036F0004D1B07FC03D04EF40C94861B509540954F
:10370000309521953F4F4F4F5F4F0895909580958D
:10371000709561957F4F8F4F9F4F0895EE0FFF1F5C
:103720000590F491E02D09940F931F93CF93DF93AD
:10373000869F8001879F100D969F100D1124C80150
:103740000E94B01BEC01009729F0A80160E070E036
:103750000E94D71CCE01DF91CF911F910F91089548
:10376000CF93DF938230910510F482E090E0E091F6
:10377000D503F091D60320E030E0A0E0B0E0309730
:1037800039F14081518148175907B8F04817590756
:1037900071F482819381109729F013969C938E93F4
:1037A00012972CC09093D6038093D50327C0211580
:1037B000310531F04217530718F0A901DB0101C0B0
:1037C000EF019A01BD01DF010280F381E02DD7CF27
:1037D00021153105F9F0281B390B2430310580F40F
:1037E0008A819B816115710521F0FB01938382839E
:1037F00004C09093D6038093D503FE01329644C053
:10380000FE01E20FF31F8193919322503109398316
:1038100028833AC02091D3033091D403232B41F461
:1038200020910201309103013093D4032093D303FC
:1038300020910001309101012115310541F42DB78E
:103840003EB74091040150910501241B350BE091D6
:10385000D303F091D403E217F307A0F42E1B3F0B20
:103860002817390778F0AC014E5F5F4F24173507F2
:1038700048F04E0F5F1F5093D4034093D3038193BE
:10388000919302C0E0E0F0E0CF01DF91CF91089585
:10389000CF93DF93009709F487C0FC01329713821E
:1038A0001282C091D503D091D603209781F4208154
:1038B0003181280F391F8091D3039091D40382174F
:1038C000930779F5F093D403E093D3036DC0DE0141
:1038D00020E030E0AE17BF0750F412964D915C9196
:1038E00013979D014115510509F1DA01F3CFB38317
:1038F000A28340815181840F951F8A179B0771F421
:103900008D919C911197840F951F029691838083CE
:1039100012968D919C911397938382832115310583
:1039200029F4F093D603E093D5033EC0D901139652
:10393000FC93EE9312974D915D91A40FB51FEA177A
:10394000FB0779F480819181840F951F0296D9013C
:1039500011969C938E938281938113969C938E9360
:103960001297E0E0F0E08A819B81009719F0FE0158
:10397000EC01F9CFCE01029628813981820F931F85
:103980002091D3033091D4032817390769F4309775
:1039900029F41092D6031092D50302C0138212822A
:1039A000D093D403C093D303DF91CF910895DC016A
:1039B00001C06D9341505040E0F70895F894FFCF57
:1039C0000000D70380000112020002000258020129
:1039D00052656164206661696C0001000A00640040
:1039E000E8033F065B4F666D7D077F6F777C395E2E
:1039F000797100000000C61299123F1247125A1244
:103A00006912000000000219431884189D188F18CD
:023A1000E018BC
:00000001FF
